S00F00004B6E6F626F76652E7372656341
S11300000C9434000C9451000C9451000C94510045
S11300100C9451000C9451000C9451000C94510018
S11300200C9451000C9451000C9451000C94510008
S11300300C9451000C9432010C9451000C94510016
S11300400C9451000C9451000C9485020C94B3024E
S11300500C9451000C9447010C9451000C945100E1
S11300600C9451000C94510011241FBECFEFD8E022
S1130070DEBFCDBF11E0A0E0B1E0E2EAF6E002C0ED
S113008005900D92A436B107D9F721E0A4E6B1E0BA
S113009001C01D92A93AB207E1F70E94F6000C9440
S11300A04F030C940000299A85E08A95F1F700002B
S11300B029980895CF93C82F662311F0289A01C078
S11300C02898549A559A569A579A5F985E985D98CC
S11300D05C98CC230CF45F9AC6FD5E9AC5FD5D9ACC
S11300E0C4FD5C9A0E9453005F985E985D985C988A
S11300F0C3FD5F9AC2FD5E9AC1FD5D9AC0FD5C9A24
S11301000E9453005C9A5D9A5E9A5F9A87EB9BE02B
S11301100197F1F700C00000CF91089560E00E94BC
S11301205A000895611104C080580E948E000895F9
S113013080540E948E00089581E00E948E000895EC
S113014061E00E945A000895CF93DF93EC01219659
S1130150FC018081882329F00E94A00089918111EB
S1130160FBCFDF91CF910895CF93C82F209A559A52
S1130170219A549A559A569A579A8FEF99EF019764
S1130180F1F700C000005D9A5C9A0E9453008FE171
S11301909EE40197F1F700C000000E9453008FEF26
S11301A090E00197F1F700C000000E9453008FEF28
S11301B090E00197F1F700C000005C980E945300A2
S11301C08FEF90E00197F1F700C0000088E20E94F1
S11301D08E0088E00E948E000E949C0086E00E94AF
S11301E08E008C2F0E948E00CF9108958CE00E9487
S11301F0B40060E081E00E94920080E091E00E94FF
S1130200A40061E083E00E94920087E091E00E94F4
S1130210A400ECE7F0E080818F77808380818064A4
S113022080838081807F8083EAE7F0E0808180683A
S11302308083808188608083808187608083EFE60B
S1130240F0E0808181608083E1E8F0E080818B7F51
S1130250808380818360808387E690E00E94DD0252
S11302607894FFCF1F920F920FB60F9211248F93A1
S1130270EF93FF93EAE7F0E0808180648083FF914D
S1130280EF918F910F900FBE0F901F9018951F92B2
S11302900F920FB60F9211240F931F932F933F9336
S11302A04F935F936F937F938F939F93AF93BF937A
S11302B0EF93FF93CF93DF9300D000D0CDB7DEB799
S11302C080E390E39A8389839C838B8300917800F5
S11302D0109179004AE0BE016F5F7F4FC8010E9410
S11302E01A030E949C0060E081E00E94920080E07A
S11302F091E00E94A40061E083E00E94920087E004
S113030091E00E94A4000E3F83E0180720F160E012
S113031088E00E949200CE0101960E94A40040E170
S1130320BE016F5F7F4FC8010E941A0360E08DE039
S11303300E949200CE0101960E94A40061E088E030
S11303400E9492008CE091E00E94A40084E191E07C
S11303500E940B03C1C0063782E0180720F160E059
S113036088E00E949200CE0101960E94A40040E120
S1130370BE016F5F7F4FC8010E941A0360E08DE0E9
S11303800E949200CE0101960E94A40061E088E0E0
S11303900E94920089E191E00E94A40082E291E02F
S11303A00E940B0399C0003981E0180720F160E036
S11303B088E00E949200CE0101960E94A40040E1D0
S11303C0BE016F5F7F4FC8010E941A0360E08DE099
S11303D00E949200CE0101960E94A40061E088E090
S11303E00E94920089E291E00E94A40083E391E0DC
S11303F00E940B0371C0063F110520F160E088E004
S11304000E949200CE0101960E94A40040E1BE0128
S11304106F5F7F4FC8010E941A0360E08DE00E9465
S11304209200CE0101960E94A40061E088E00E943F
S1130430920088E391E00E94A40082E491E00E948B
S11304400B034AC00236110520F160E088E00E94E7
S11304509200CE0101960E94A40040E1BE016F5FAC
S11304607F4FC8010E941A0360E08DE00E94920051
S1130470CE0101960E94A40061E088E00E949200EF
S113048087E491E00E94A4008FE491E00E940B03B2
S113049023C060E088E00E949200CE0101960E9491
S11304A0A40040E1BE016F5F7F4FC8010E941A03A0
S11304B060E08DE00E949200CE0101960E94A400AB
S11304C061E088E00E94920082E591E00E94A4002D
S11304D08DE591E00E940B030F900F900F900F9009
S11304E0DF91CF91FF91EF91BF91AF919F918F9148
S11304F07F916F915F914F913F912F911F910F9138
S11305000F900FBE0F901F9018951F920F920FB669
S11305100F9211242F938F939F93EF93FF938091C6
S1130520C0002091C6008C71E0916601EF5FEF710D
S113053090916501E91739F0E0936601F0E0E7591D
S1130540FE4F208301C082E090916401892B809347
S11305506401FF91EF919F918F912F910F900FBEA6
S11305600F901F9018951F920F920FB60F9211249F
S11305708F939F93EF93FF9390916801809167010C
S1130580981769F0E0916701EF5FEF71E0936701FD
S1130590F0E0E757FE4F80818093C60005C0E1EC90
S11305A0F0E080818F7D8083FF91EF919F918F9107
S11305B00F900FBE0F901F90189510926801109223
S11305C06701109266011092650199231CF422E0E0
S11305D02093C00090789093C5008093C40088E96C
S11305E08093C10086E08093C20008952091680141
S11305F02F5F2F71909167012917E1F3E22FF0E04B
S1130600E757FE4F808320936801E1ECF0E080819E
S1130610806280830895CF93DF93EC0188818823DF
S113062031F021960E94F60289918111FBCFDF916E
S1130630CF910895BB274A3031F4992322F4BDE2C7
S1130640909581959F4F0C942603BB27FB0155275A
S1130650AA27880F991FAA1FA41710F0A41B83951B
S11306605051B9F7A05DAA3308F0A95DA193009792
S113067079F7B111B1931192CB010C943F03DC01D2
S1130680FC01672F71917723E1F7329704C07C91C5
S11306906D9370836291AE17BF07C8F30895F89401
S10506A0FFCF86
S11306A276616C75653A006B65793A006E6F6E65BA
S11306B2202020006E6F6E650053656C65637420A4
S11306C2200053656C656374004C656674202020B9
S11306D22020004C65667400446F776E2020202031
S11306E22000446F776E0055702020202020005592
S11306F270005269676874202020202000526967C4
S10707026874000013
S9030000FC
