S0140000496E746572726570744C45442E737265637E
S11300000C9434000C9451000C9451000C94510045
S11300100C9451000C9451000C9451000C94510018
S11300200C9451000C9451000C9451000C94510008
S11300300C9451000C94AF000C9451000C9451009A
S11300400C9451000C9451000C9451000C945100E8
S11300500C9451000C9451000C9451000C945100D8
S11300600C9451000C94510011241FBECFEFD8E022
S1130070DEBFCDBF11E0A0E0B1E0E0E1F2E002C0FC
S113008005900D92A430B107D9F721E0A4E0B1E0C6
S113009001C01D92A830B207E1F70E9478000C94C9
S11300A006010C940000FC01408121E030E002C014
S11300B0220F331F6A95E2F7242B20830895FC0155
S11300C0908121E030E002C0220F331F6A95E2F7ED
S11300D02095292320830895FC01408121E030E00C
S11300E002C0220F331F6A95E2F724272083089564
S11300F065E084E290E00E94530065E085E290E0D0
S11301000E945F0064E084E290E00E94530064E097
S113011085E290E00E945F0063E084E290E00E9448
S1130120530063E085E290E00E945F0062E084E2B5
S113013090E00E94530062E085E290E00E945F003C
S1130140E1E8F0E080818B7F80838081836080831D
S1130150EFE6F0E08081816080837894FFCF1F9286
S11301600F920FB60F9211242F933F934F935F93E7
S11301706F937F938F939F93AF93BF93EF93FF936B
S113018080910601909107018130910539F421E0B5
S113019030E0309305012093040117C0009729F43F
S11301A0109205011092040107C0209104013091BE
S11301B005012115310531F40196909307018093CF
S11301C0060108C02130310529F4019790930701F5
S11301D080930601E0910601F0910701E050FF4F82
S11301E0608185E290E00E946C00FF91EF91BF91E5
S11301F0AF919F918F917F916F915F914F913F91BB
S11302002F910F900FBE0F901F901895F894FFCF69
S107021005040302D8
S9030000FC
