:100000000C9434000C943E000C943E000C943E0082
:100010000C943E000C943E000C943E000C943E0068
:100020000C943E000C943E000C943E000C943E0058
:100030000C943E000C943E000C943E000C943E0048
:100040000C943E000C943E000C943E000C943E0038
:100050000C943E000C943E000C943E000C943E0028
:100060000C943E000C943E0011241FBECFEFD8E04C
:10007000DEBFCDBF0E9440000C946C000C940000C9
:10008000259A2D983B9A4398539A5B9820E298E0E2
:100090003FEF49E688E1315040408040E1F700C041
:1000A000000085B1822785B93FEF49E688E13150EC
:1000B00040408040E1F700C000002D9888B18927BA
:1000C00088B93FEF49E688E1315040408040E1F790
:0C00D00000C000004398DCCFF894FFCF84
:00000001FF
